:020000040800F2
:10000000E0040020050100082B1700086B11000810
:1000100029170008710100087F1A0008000000007D
:100020000000000000000000000000004719000868
:100030007301000800000000451900084919000874
:100040001F0100081F0100081F0100081F01000810
:100050001F0100081F0100081F0100081F01000800
:100060001F0100081F0100081F0100081F010008F0
:100070001F0100081F0100081F0100081F010008E0
:100080001F0100081F0100081F0100081F010008D0
:100090001F0100081F0100081F0100081F010008C0
:1000A0001F010008AD1900081F0100081F0100080A
:1000B0001F0100081F010008000000001F010008C8
:1000C0001F01000800000000000000001F010008E0
:1000D000000000001F0100081F01000800000000D0
:1000E0001F0100081F0100081F010008DFF810D0E1
:1000F00000F02CF800480047F51A0008AFF3008024
:10010000E00400200648804706480047FEE7FEE777
:10011000FEE7FEE7FEE7FEE7FEE7FEE7FEE7FEE7B7
:10012000AB190008ED000008D2B201E000F8012B85
:10013000491EFBD270470022F6E710B513460A4667
:1001400004461946FFF7F0FF204610BD064C074D48
:1001500006E0E06840F0010394E807009847103497
:10016000AC42F6D3FFF7C6FF0C2500082C2500088B
:10017000FEE7704772B6FEE770B5044600F000F97E
:100180000546601C02D004480078044400F0F8F8EA
:10019000401BA042FAD370BD140000202DE9F84F97
:1001A000DFF89C91002409F1040A0AF1040B2346AC
:1001B0000F270BF1040EBBE00125A5402A40AA42FF
:1001C00076D1DFF880C14E68A6EB0C0866452BD0CF
:1001D0000DDC032E34D005DC36B3012E19D0022EEF
:1001E0002FD11BE0112E16D0122E2AD119E0B8F50E
:1001F000881F19D006DCB8F5803F15D0B8F5801FF0
:100200001FD111E0B8F5001F0ED0B8F5041F18D1AA
:100210000AE0CB6815E0CB681B1D12E0CB68083301
:100220000FE0CB680C330CE08B682BB1012B4FF047
:10023000080303D0456104E0042302E0056100E007
:100240000023FF2A01D8064601E000F104064FEA28
:10025000840501D9A5F12005D6F8008007FA05FC30
:1002600028EA0C0803FA05F548EA0508C6F80080F4
:100270004D68ED005BD5344DAE6946F00106AE61C8
:10028000AD6924F0030605F0010500952F4D06EB3E
:10029000050CDCF80850A607360F07FA06F825EA21
:1002A0000805DFF8AC80404503D14FF0000810E0AE
:1002B0003DE0DFF8A080404502D14FF0010808E0A2
:1002C000DFF89480404502D14FF0020801E04FF082
:1002D000030808FA06F848EA0508CCF808804D68D3
:1002E000D9F80060ED034D4601D5164300E0964372
:1002F0002E604D68DAF80060AD03554601D516430F
:1003000000E096432E604D68DBF80060ED025D462C
:1003100001D5164300E096432E604D68DEF800607C
:10032000AD02754601D5164300E096432E60641C6D
:100330000A6832FA04F57FF43FAFBDE8F88F000099
:1003400000040140000011100010024000000140B4
:1003500000080140000C0140001001408068084086
:1003600000D001207047C26821EA02030A4043EA34
:100370000241016170470AB1016170470904FBE75E
:1003800001488068704700001400002070B5040028
:1003900025D094F83D00002520B984F83C50204633
:1003A00000F050F9242084F83D002068016821F015
:1003B000010101602068016841F40041016020688A
:1003C000016821F40041016000F0AAFA4D4A616819
:1003D000914201D84C4900E04C49884201D20120A9
:1003E00070BD4B492368B0FBF1F15E6826F03F0613
:1003F0000E435E606368934206D94FF49673594387
:100400004FF47A73B1FBF3F12368491C1E6A26F09E
:100410003F06314319626168914210D84900401E7D
:10042000B0FBF1F2521CC2F30B02042A01D20420E9
:1004300022E0B0FBF1F0401CC0F30B001CE0A2680E
:10044000F2B301EBC10303EB0116431EB3FBF6F35A
:100450005B1C43F480431B0549D092B301EBC102FE
:1004600002EB0111401EB0FBF1F0401CC0F30B0089
:1004700040F4804040F400402168CA694CF6FF73A4
:100480009A431043C861D4E9071001432068026809
:1004900022F0C00211430160D4E903010143206846
:1004A000826848F2FF339A4311438160D4E9050121
:1004B00008432168CA6822F0FF021043C86001E0C7
:1004C0000EE016E02068016841F00101016025643A
:1004D000202084F83D00256384F83E50002070BD44
:1004E00001EB4106431EB3FBF6F35B1CB3E70120AF
:1004F000C2E701EB4101401EB0FBF1F0401CC0F32C
:100500000B00B7E7A086010080841E0000093D00B3
:1005100040420F002DE9FF4F83B09A46DDE9119765
:1005200093460446DDF84080FFF72AFF054694F81D
:100530003D0020287FD11923012240492046009503
:1005400000F0A6FE002876D194F83C00012872D075
:10055000012084F83C0020680168C90703D10168C4
:1005600041F0010101602068016821F4006101602F
:10057000212084F83D00402084F83E0000262664B7
:10058000C4F82480A4F82A90608D20852C48E0626D
:10059000CDE9007553465A462046049900F0FEFD09
:1005A00070B930E02A463946204600F0F0FE58B1D6
:1005B000206C042804D12068016841F400710160B6
:1005C000012007B0BDE8F08F606A216800780861FB
:1005D000606A401C6062218D491E89B22185628D4E
:1005E000521E628522685369DB435B070BD469B1F5
:1005F00000781061606A401C6062208D401E20857A
:10060000608D401E6085208D0028CBD12A4639465A
:10061000204600F017FE0028CAD154F83D0B0168AF
:1006200041F400710160202004F81E09E677667726
:100630000020C6E7FFE70220C3E700000200100029
:100640000000FFFF10B586B00021009101910291DA
:1006500003910068104988421CD1104CA06940F0F9
:100660000800A061A069694600F008000490C0205D
:10067000009012200190012002900320039008486E
:10068000FFF78CFDE06940F40010E061E06900F4E0
:100690000010049006B010BD00540040001002404D
:1006A000000C014002488168027811448160704763
:1006B00014000020074810B5016841F010010160E6
:1006C000032000F085F8002000F006F800F024F880
:1006D000002010BD0020024070B50D4D04464FF4BF
:1006E0007A712878B1FBF0F00A490968B1FBF0F0A3
:1006F00000F0ECFA48B9102C07D200222146501E17
:1007000000F046F800206C6070BD012070BD000054
:1007100014000020200000200C4808B5816941F039
:1007200001018161816901F001010091C16941F01C
:100730008051C161C06900F0805000900448416858
:1007400021F0E06141F00071416008BD00100240FD
:100750000000014000280DDB00F01F020121914044
:100760004009800000F1E020C0F88011BFF34F8FF6
:10077000BFF36F8F7047002809DB00F01F020121D3
:1007800091404009800000F1E020C0F8001170475E
:10079000F0B40E4B1B680C46C3F30223C3F10705EC
:1007A000042D00D90425191D072901D2002300E0DA
:1007B000DB1E012606FA05F1491E214099409E40A4
:1007C000761E16403143F0BC01F074B90CED00E028
:1007D000064900F0070208684FF6FF03184040EA98
:1007E0000220034A10430860704700000CED00E04F
:1007F0000000FA052DE9F0470F46050061D0434E91
:10080000306800F00700B84209D2306820F00700D5
:1008100038433060306800F00700B84251D1286892
:100820003B4C810712D5400703D5606840F4E06077
:1008300060602878000703D5606840F4605060600D
:100840006068A96820F0F000084360602878C0075D
:1008500028D06868012810D02168022810D08907A4
:1008600000292EDA616821F0030101436160FFF77E
:1008700087FD804641F288390DE021688903EFE762
:100880008901EDE7FFF77CFDA0EB0801494502D99E
:100890000320BDE8F0876068696800F00C00B0EBE9
:1008A000810FEFD1306800F00700B8420BD93068F3
:1008B00020F0070038433060306800F00700B8428D
:1008C00001D00120E5E72878400705D56068E96890
:1008D00020F4E060084360602878000706D560686F
:1008E000296920F4605040EAC100606000F028F8F7
:1008F0006168084AC1F30311515CC84006490860A9
:1009000006480068FFF7E8FE0020C2E7002002402A
:1009100000100240DC1C000820000020180000200D
:100920000448054900684968044AC1F30221515C42
:10093000C84070472000002000100240EC1C000856
:1009400012A185B00FC98DE80F0014A0144A0068E9
:1009500004905168134801F00C03042B10D0082BAD
:100960000ED1C1F38343C9031DF803000AD55168B2
:1009700004AAC1F34041515C0A4A5043B0FBF1F074
:1009800005B0704708494843FAE700000203040530
:10099000060708090A0B0C0D0E0F101001020000CB
:1009A0000010024000127A0000093D002DE9F84FC6
:1009B000040070D02078C04DC00749D06868C0F3EB
:1009C0008100012807D06868C0F38100022809D19E
:1009D0006868C00306D52868800339D56068002898
:1009E000E7D035E06068B0F5803F0BD010B1B0F5CE
:1009F000A02F11D0286820F480302860286820F4C7
:100A0000802002E0286840F480302860606890B15F
:100A1000FFF7B6FC06460AE0286840F4802028600C
:100A2000F0E700BFFFF7ACFC801B642873D8286890
:100A30008003F7D50CE0FFF7A3FC064605E000BFF6
:100A4000FFF79EFC801B6428F0D828688003F7D449
:100A500020789A4E80074FF001094FF0000839D5F1
:100A6000686810F00C0F07D06868C0F38100022896
:100A700009D16868C00306D42868800714D52069A6
:100A8000012808D110E02069B0B1C6F80090FFF746
:100A900077FC074605E00AE1FFF772FCC01B02285D
:100AA000C4D828688007F7D52868616920F0F80065
:100AB00040EAC10028600DE0C6F80080FFF760FC46
:100AC000074604E0FFF75CFCC01B022823D8286817
:100AD0008007F7D4207800072CD57948A169D9B1CF
:100AE000C0F80090FFF74CFC074604E0FFF748FC15
:100AF000C01B02280FD8686A8007F7D571484FF4E9
:100B0000FA510068B0FBF1F0009000BF0098411E60
:100B10000091FAD20EE080E0C0F80080FFF730FCD0
:100B2000074604E0FFF72CFCC01B022875D8686A52
:100B30008007F7D42078400760D5E8690027C00017
:100B400008D4E86940F08050E861E869012700F0C6
:100B5000805000905C480168C90513D40168834641
:100B600041F480710160FFF70BFC824606E000BF94
:100B7000FFF706FCA0EB0A0064284ED8DBF8000063
:100B8000C005F5D5E06801280AD008B1052813D0C2
:100B9000286A20F001002862286A20F0040002E0A0
:100BA000286A40F001002862E06841F2883B98B171
:100BB000FFF7E6FB82460BE0286A40F0040028625B
:100BC000EEE700BFFFF7DCFBA0EB0A0159455AD85E
:100BD000286A8007F6D50CE0FFF7D2FB824605E0D5
:100BE000FFF7CEFBA0EB0A0159454CD8286A8007D5
:100BF000F6D41FB1E86920F08050E861E06988B35D
:100C00006968C1F38101022944D00228C6F86080D6
:100C100004D0FFF7B5FB044638E034E0FFF7B0FB43
:100C2000074604E0FFF7ACFBC01B02282BD828685E
:100C30008001F7D4206AB0F5803F05D16868A168CB
:100C400020F4003008436860D4E90801084369686B
:100C500021F4741108436860C6F86090FFF790FBB8
:100C6000044606E025E000BFFFF78AFB001B0228D0
:100C700009D828688001F7D51BE000BFFFF780FB8B
:100C8000001B022802D90320BDE8F88F28688001E4
:100C9000F4D40EE00128F7D06868226A00F48031AD
:100CA000914204D1616A00F47010884201D00120A1
:100CB000EAE70020E8E7000000100240000042429E
:100CC00080044242200000200070004010B5401E09
:100CD000B0F1807F01D3012010BD4FF0E0246061AE
:100CE0000F21601700F0E6FE0020A06107202061C0
:100CF000002010BD7047704770B590F83C20012A65
:100D000023D0012480F83C40022280F83D20036873
:100D10005A689D6822F070060A6832435A600C4B8C
:100D200002689A4205D0B2F1804F02D0094B9A4234
:100D300004D1496825F080031943916080F83D4053
:100D4000002180F83C10084670BD022070BD0000F4
:100D5000002C01400004004010B50446022084F835
:100D60003D002068016A41F21112114207D1016A67
:100D70009210114203D1016821F001010160204667
:100D800000F046F8002084F8460084F83E0084F81D
:100D90003F0084F8400084F8410084F8420084F861
:100DA000430084F8440084F8450084F83D0084F84A
:100DB0003C0010BD10B5040003D094F83D0010B104
:100DC00007E0012010BD002084F83C00204600F020
:100DD00031F8022084F83D00211D206800F0ECFD70
:100DE000012084F8460084F83E0084F83F0084F82F
:100DF000400084F8410084F8420084F8430084F8FD
:100E0000440084F8450084F83D00002010BD000037
:100E100000680649884207D10548816921F40061CC
:100E200081611920FFF796BC70470000002C01403B
:100E30000010024008B500680B49884212D10B48E7
:100E4000816941F4006181618069002200F40060E1
:100E5000009011461920FFF79BFCBDE808401920BF
:100E6000FFF789BC08BD0000002C014000100240C3
:100E700090F83D10012901D001207047022180F82F
:100E80003D100168CA6842F00102CA6000680A4960
:100E9000884205D0B0F1804F02D00849884204D181
:100EA000816801F00701062903D0016841F00101C2
:100EB0000160002070470000002C01400004004049
:100EC0000168CA6822F00102CA6001680A6A41F238
:100ED00011131A4207D10A6A9B101A4203D10A68F9
:100EE00022F001020A60012180F83D1000207047C5
:100EF00070B5044690F83C00012817D0012584F80D
:100F00003C50022084F83D002068826822F077027D
:100F100022F47F4282600868502830D00DDC2028FF
:100F20004DD005DC98B310283BD148E0022070BDBD
:100F3000302844D0402834D139E0602828D07028A7
:100F400006D0B0F5805F2CD0B0F5005F29D10AE063
:100F5000CB68D1E90121206800F05CFD2068816840
:100F600041F0770109E0CB68D1E90121206800F068
:100F700051FD2068816841F48041816011E0CA68B8
:100F80004968206800F058FD5021206807E016E00D
:100F9000CA684968206800F060FD6021206800F0A0
:100FA00043FD84F83D50002084F83C0070BDCA68C1
:100FB0004968206800F040FD40212068EFE7226882
:100FC00001461046EBE7704770B5044600680169BA
:100FD0004FF00005C943890715D4C168C943890783
:100FE00011D4E91E01610120207720688069800703
:100FF000204602D0FFF7E7FF04E000F098F8204613
:1010000000F096F8257720680169C943490717D48D
:10101000C168C943490713D46FF00401016102207C
:1010200020772068806910F4407F204602D0FFF7C7
:10103000CAFF04E000F07BF8204600F079F825773D
:1010400020680169C943090716D4C168C943090763
:1010500012D46FF008010161042020772068C06974
:101060008007204602D0FFF7AEFF04E000F05FF8F3
:10107000204600F05DF8257720680169C943C9065C
:1010800017D4C168C943C90613D46FF010010161B8
:10109000082020772068C06910F4407F204602D0E5
:1010A000FFF791FF04E000F042F8204600F040F81E
:1010B000257720680169C943C90708D1C168C943B8
:1010C000C90704D1891E0161204600F033F8206869
:1010D0000169C943090609D4C168C943090605D491
:1010E0006FF0800101612046FFF704FE206801696E
:1010F000C943490609D4C168C943490605D46FF0FC
:1011000040010161204600F02FF820680169C943C1
:1011100089060BD4C168C943890607D46FF0200142
:1011200001612046BDE87040FFF7E5BD70BD704726
:101130007047000010B50068084988420DD1084C7E
:101140002069002809DD6068002806D001210548D3
:10115000FFF709F92069401E206110BD002C0140F5
:1011600000000020000C01407047FEE701684A695A
:10117000D24352050FD46FF480624A61002140F8D7
:10118000301F202242738173026942F0040202611F
:101190000173012070470020704700002DE9F843DB
:1011A000044600680D46DDE9089701689846164632
:1011B00041F4807101604B4600224FF0011120463E
:1011C000009700F065F848B120680068C00502D5B6
:1011D0004FF4007020640320BDE8F883216805F017
:1011E000FE0008613B464A461549204600F084F857
:1011F00088B920684169806900903A46494620468E
:1012000000F0C5F848B1206C042804D120680168BA
:1012100041F4007101600120DEE7F5B2B8F1010F81
:1012200009D02168300A08613A464946204600F054
:10123000AEF80028E7D1206805610020CCE7000067
:101240000200010070B516460D4604460DE020462A
:10125000FFF78CFF08B1012070BD681C05D0FFF7B7
:101260008FF8801BA84207D835B120684069C04379
:101270004007ECD4002070BD002044F8300F20213E
:101280006173A073216941F0200121612073E2E7BD
:101290002DE9F0471E4690460D460446C1F3074728
:1012A000DDF8209008E0701C06D0FFF769F8A0EB8D
:1012B0000900B0420FD876B12068012F18D080699C
:1012C00025EA00000004000C14D000214145EAD0BA
:1012D0000020BDE8F087002044F8300F2021617322
:1012E000A073216941F02001216120730120F0E702
:1012F0004069E5E70121E9E72DE9F0479A46914683
:101300000E46044600254FF02008C1F3074725E0AC
:1013100020684069C043400514D42068016841F446
:101320000071016021686FF480604861256384F872
:101330003D8084F83E50206C40F00400206484F826
:101340003C501FE0B9F1FF3F08D0FFF719F8A0EBC0
:101350000A0149450CD8B9F1000F09D02068012FC6
:1013600013D0806926EA00000004000C0BD0CFE700
:1013700044F8305F84F80D80A573206940F02000A8
:10138000206125730120BDE8F0874069EAE770B568
:1013900016460D4604460DE02046FFF7E7FE08B16D
:1013A000012070BD681C05D0FEF7EAFF801BA84233
:1013B00007D835B120684069C0430006ECD400204E
:1013C00070BD002044F8300F20216173A0732169A3
:1013D00041F0200121612073E2E700002DE9F04394
:1013E000294889B04FF00009D0E90012CDE9031275
:1013F000D0E90210CDE90110244F4D460DF10C0843
:1014000001AE01220F213846FEF7B5FF38F815105E
:1014100000223846FEF7AFFF5FF00004384636F88A
:101420001410FEF79BFF40B90120FEF7A5FE36F829
:1014300014103846FEF792FF48B1641C042CEDDB13
:101440006D1C042DDDDB484609B0BDE8F0834FF08C
:10145000010808FA05F004F1080140EA090008FA59
:1014600001F848EA000802E00520FEF785FE36F89C
:10147000140038B100213846FEF770FF0028F3D180
:101480004046E1E70121F6E7CC1C000800080140D6
:1014900070B5114C060003D0FEF772FF054613E04D
:1014A000FFF79CFF0004000C09D10120FEF764FE49
:1014B000F6E700BFFFF792FF0004000C01D02060A8
:1014C00070BD0120FEF758FEFEF75AFF401BB042E8
:1014D000F0D30020206070BD0000002010B5FFF7A1
:1014E000D7FFB0F5027F4CD017DCB0F5847F46D033
:1014F0000ADC00282AD0A0F58070013827D0012806
:101500002DD0032821D132E0A0F50070013820D081
:10151000012826D0032818D12BE040F60102A0F6BE
:101520000101904219D00ADCA0F58060013812D088
:10153000012818D003281ED0072806D123E001294E
:1015400013D0032919D007291FD0002010BD312046
:1015500010BD322010BD332010BD412010BD3420FD
:1015600010BD352010BD362010BD422010BD3720E3
:1015700010BD382010BD392010BD432010BD2A20D9
:1015800010BD302010BD232010BD442010BD000030
:101590002DE9F04385B0002434480094019402946E
:1015A0000394816941F010018161816901F01001AA
:1015B0000491816941F020018161816901F020017C
:1015C0000491816941F004018161816901F00401A4
:1015D0000491816941F0080181618069244F00F024
:1015E00008004FF400550490002229463846FEF7C3
:1015F000C2FEDFF8808000220F214046FEF7BBFECE
:10160000DFF87490002207214846FEF7B4FE0095EB
:10161000022601250396CDE9015469463846FEF7B6
:10162000BDFD0F20CDE90005CDE9024669464046E3
:10163000FEF7B4FDF0208DE8310069464046FEF724
:10164000ADFD0320CDE9024000956946019548466D
:10165000FEF7A4FD0620CDE90005CDE90246694666
:101660004846FEF79BFD05B0BDE8F0830010024040
:101670000010014000080140000C01400D4810B569
:101680000B4901600C49416000214FF480428160A8
:10169000C0E9031241618161C1610162FEF776FE1A
:1016A000002803D0BDE81040FEF764BD10BD000067
:1016B0000054004044000020A086010010B586B010
:1016C000002418480094019402940394049414494B
:1016D000059401604721C0E9011440F2F311C0E90B
:1016E00003148021C0E90541FFF764FB08B1FEF750
:1016F00041FD4FF48050009069460A48FFF7F8FB1F
:1017000008B1FEF737FD049404A906480594FFF7D5
:10171000F3FA002801D0FEF72DFD06B010BD000041
:10172000002C014098000020FEE7FEE770B5002481
:1017300004F1B000C0B200F0E1F8002000F0DEF8E3
:10174000102000F0DBF80025002000F0E9F86D1C07
:10175000EDB2802DF8D3641CE4B2082CE8D370BD40
:1017600010B5B030C0B200F0C9F8002000F0C6F8E3
:10177000102000F0C3F80024002000F0D1F8641C11
:10178000E4B2802CF8D310BD10B58D2000F0B6F86F
:10179000142000F0B3F8BDE81040AF2000F0AEB860
:1017A00010B5C820FEF7E8FCBDE8104000F068B9AD
:1017B00010B50446B031C8B200F0A0F8102040EADD
:1017C000141000F09BF804F00F00BDE8104000F08A
:1017D00095B800002DE9F041203A00240D468046DE
:1017E000D6B27F2803D900208D1C8046EDB2102B85
:1017F00029460FD0FFF7DCFF164906EB460001EB48
:101800004005285D00F08CF8641CE4B2062CF8D387
:10181000BDE8F081FFF7CCFF0F4F00BF04EB0610CF
:10182000385C00F07DF8641CE4B2082CF6D36D1C23
:10183000E9B24046FFF7BCFF5FF0000404EB06107E
:101840003844007A00F06CF8641CE4B2082CF5D33C
:10185000DEE70000F41C00081C1F00082DE9F05F03
:101860000026DDF828901D4692468B468046344679
:101870004FEA590723E0281B401EC1B20A2000F09E
:101880000FFABAFBF0F00A21B0FBF1F201FB1200F3
:1018900026B9691E8C4201DA38B101263030C2B255
:1018A00007FB0480C0B24B4604E007FB0480C0B2D3
:1018B0004B4620225946FFF78DFF641CE4B2AC4230
:1018C000D9D3BDE8F09F2DE9F041984617460E4662
:1018D000044600250DE0434631462046FFF77AFFD7
:1018E0000834E4B2782C02D90024B61CF6B26D1C80
:1018F000EDB27A5D002AEED1BDE8F08101B584B089
:1019000001214FF4807204A88DE807000B460022E5
:1019100078210248FEF7FEFD05B000BD440000201E
:1019200001B584B001214FF4807204A88DE807004E
:101930000B46402278210248FEF7ECFD05B000BDC1
:101940004400002070477047FEF7ACBE30B58FB042
:1019500028216846FEF7EFFB14210AA8FEF7EBFBEF
:1019600001210804CDE9001000240294022504910D
:10197000CDE907504FF4E01009906846FFF716F8DC
:1019800008B172B6FEE70F20CDE90A054FF480607A
:10199000CDE90C4002210AA80E94FEF72BFF002887
:1019A00001D072B6FEE70FB030BD70470148FFF7B7
:1019B0000BBB00009800002070B50268134B144C5C
:1019C0004FF08046984203D0B04201D0A04203D1EC
:1019D00022F070054A682A43984203D0B04201D0F1
:1019E000A04203D122F44074CA6822434C6922F019
:1019F0008002224302608A68C2620A688262984258
:101A000001D1096901630121416170BD002C0140D0
:101A10000004004010B5846842EA032224F47F44A5
:101A20000A432243826010BD826822F070020A439A
:101A300042F007018160704710B5036A046A24F020
:101A400001040462846924F0F00444EA021423F0DF
:101A50000A020A438461026210BD10B5036A23F0D2
:101A6000100303628369046A23F4704343EA023279
:101A700024F0A00343EA01118261016210BDFEE778
:101A8000FEB50024094F4FF4807501263819CDE9C1
:101A9000000601230022782102950548FEF73AFD51
:101AA000641CE4B21B2CF1D3FEBD00002800002012
:101AB000440000200907090E002804DB00F1E020A3
:101AC00080F80014704700F00F0000F1E02080F86B
:101AD000141D704702E008C8121F08C1002AFAD17D
:101AE00070477047002001E001C1121F002AFBD19E
:101AF00070470000002608B53546B046FEF7DAFD0F
:101B0000FFF724FFFFF744FDFFF7B8FDFFF7D6FD11
:101B1000FFF746FEFFF738FEFFF708FE564C4FF47E
:101B2000967910274846FEF727FB1420FFF7D6FCCE
:101B3000A0F13001092909D8052E71DA05EB8501DC
:101B400000EB4105303D761CA56069E023280AD0F2
:101B50002A281CD0432841D0442849D0412839D0D4
:101B6000422849D05CE00320FFF7FAFD0620FFF78A
:101B7000F7FD4248FFF7A4F9A0680521C00090FBDB
:101B8000F1F0E060400000263546206122E00320AD
:101B9000FFF7E6FD0620FFF7E3FD3848FFF790F971
:101BA00060680B21401C90FBF1F201FB12006060A9
:101BB000F0B14FF4FA7191FBF0F000EBD0704FF000
:101BC000FF3101EB60012D48C160FFF7C5F82B48DC
:101BD000FFF7F0F82948FFF74BF921E02748FFF716
:101BE0006FF90020A060E06006460546206117E01E
:101BF0002248FFF765F913E0B8F1000F0BD0002081
:101C00008046024602211E48FEF7B5FBB8F1000FE0
:101C100003D01CA002E00120F2E71CA000F048F86D
:101C20000097052303210020A268FFF717FE206913
:101C3000052300EBD070401000EB8000C11700EBD3
:101C40005170C210032130200097FFF707FE1023C8
:101C500010A203216020FFF736FE0097062105231E
:101C600008466268FFF7FAFD10230BA20621302018
:101C7000FFF729FE56E70000000000209800002032
:101C8000000C0140466F7277617264004261636BC1
:101C900000000000756D00006D6D2F7300000000E6
:101CA0000246012000E05043491EC9B2FBD27047F2
:101CB00010B504460320FFF753FD224610230021F0
:101CC000BDE810400620FFF7FEBD00000100020045
:101CD0000400080010002000400080000000000008
:101CE00000000000010203040607080900000000CC
:101CF000010203040000000000000000002F0000AB
:101D000000000700070000147F147F1400242A7FBE
:101D10002A1200626408132300364955225000003D
:101D20000503000000001C224100000041221C00AD
:101D30000014083E08140008083E0808000000A02F
:101D4000600000080808080800006060000000202B
:101D500010080402003E5149453E0000427F400009
:101D6000004261514946002141454B31001814128F
:101D70007F10002745454539003C4A49493000015C
:101D80007109050300364949493600064949291EAB
:101D9000000036360000000056360000000814220D
:101DA000410000141414141400004122140800020D
:101DB0000151090600324959513E007C1211127C32
:101DC000007F49494936003E41414122007F41415F
:101DD000221C007F49494941007F09090901003E51
:101DE0004149497A007F0808087F0000417F41008F
:101DF000002040413F01007F08142241007F404005
:101E00004040007F020C027F007F0408107F003EEC
:101E10004141413E007F09090906003E4151215ED2
:101E2000007F091929460046494949310001017FCF
:101E30000101003F4040403F001F2040201F003F65
:101E40004038403F00631408146300070870080717
:101E500000615149454300007F41410000552A552A
:101E60002A55000041417F000004020102040040A5
:101E700040404040000001020400002054545478C7
:101E8000007F4844443800384444442000384444E7
:101E9000487F00385454541800087E090102001885
:101EA000A4A4A47C007F080404780000447D4000C2
:101EB000004080847D00007F102844000000417FA6
:101EC0004000007C04180478007C08040478003882
:101ED0004444443800FC242424180018242418FC0A
:101EE000007C0804040800485454542000043F4473
:101EF0004020003C4040207C001C2040201C003C36
:101F00004030403C004428102844001CA0A0A07C85
:101F1000004464544C4414141414141400000000BD
:101F2000000000000000000000000000000000F8B9
:101F300000000000000000333000000000100C061C
:101F4000100C0600000000000000000040C07840B7
:101F5000C0784000043F04043F040400007088FC83
:101F600008300000001820FF211E0000F008F000DB
:101F7000E018000000211C031E211E0000F008884C
:101F8000700000001E2123241927211010160E00B6
:101F9000000000000000000000000000000000E061
:101FA0001804020000000007182040000002041876
:101FB000E00000000040201807000000404080F0D2
:101FC000804040000202010F01020200000000F008
:101FD000000000000101011F0101010000000000DC
:101FE0000000000080B07000000000000000000051
:101FF00000000000000101010101010100000000DA
:102000000000000000303000000000000000000070
:1020100080601804006018060100000000E010084D
:102020000810E000000F102020100F00001010F822
:10203000000000000020203F202000000070080861
:1020400008887000003028242221300000300888E1
:10205000884830000018202020110E000000C02009
:1020600010F8000000070424243F240000F808882A
:10207000880808000019212020110E0000E01088B7
:1020800088180000000F112020110E0000380808E9
:10209000C83808000000003F0000000000708808F9
:1020A00008887000001C222121221C0000E010087A
:1020B0000810E0000000312222110F00000000C0D3
:1020C000C000000000000030300000000000008070
:1020D0000000000000008060000000000000804060
:1020E0002010080000010204081020004040404079
:1020F00040404000040404040404040000081020CC
:102100004080000000201008040201000070480810
:102110000808F0000000003036010000C030C82878
:10212000E810E0000718272423140B000000C03833
:10213000E0000000203C23020227382008F88888AD
:1021400088700000203F202020110E00C0300808B9
:1021500008083800071820202010080008F8080890
:102160000810E000203F202020100F0008F8888889
:10217000E8081000203F20202320180008F8888855
:10218000E8081000203F200003000000C0300808CD
:102190000838000007182020221E020008F8080056
:1021A0000008F808203F210101213F20000808F81D
:1021B000080800000020203F202000000000080840
:1021C000F8080800C08080807F00000008F888C000
:1021D00028180800203F20012638200008F80800B1
:1021E00000000000203F20202020300008F8F800E8
:1021F000F8F80800203F003F003F200008F830C0FA
:102200000008F808203F200007183F00E0100808E9
:102210000810E0000F10202020100F0008F8080818
:102220000808F000203F210101010000E01008082B
:102230000810E0000F18242438504F0008F8888850
:1022400088887000203F2000030C30200070880830
:10225000080838000038202121221C00180808F83E
:10226000080818000000203F2000000008F80800BF
:102270000008F808001F202020201F000878880090
:1022800000C83808000007380E010000F80800F800
:102290000008F800033C0700073C030008186880AA
:1022A0008068180820302C03032C30200838C80020
:1022B000C83808000000203F20000000100808086F
:1022C000C83808002038262120201800000000FE11
:1022D000020202000000007F40404000000C30C0BD
:1022E00000000000000000010638C00000020202E9
:1022F000FE000000004040407F000000000004029B
:1023000002020400000000000000000000000000C5
:1023100000000000808080808080808000020204B5
:1023200000000000000000000000000000008080AD
:10233000808000000019242222223F2008F800801B
:1023400080000000003F112020110E0000000080DE
:1023500080800000000E112020201100000000806D
:102360008088F800000E112020103F20000080809F
:1023700080800000001F222222221300008080F0B3
:10238000888888180020203F2020000000008080DE
:1023900080808000006B94949493600008F8008023
:1023A00080800000203F210000203F20008098987E
:1023B000000000000020203F2020000000000080DE
:1023C0009898000000C08080807F000008F800001E
:1023D00080808000203F24022D302000000808F873
:1023E000000000000020203F20200000808080802E
:1023F00080808000203F20003F20003F80800080C0
:1024000080800000203F210000203F2000008080CD
:1024100080800000001F202020201F00808000807E
:102420008000000080FFA12020110E00000000802D
:1024300080808000000E112020A0FF80808080001E
:102440008080800020203F2120000100000080804B
:10245000808080000033242424241900008080E040
:10246000808000000000001F20200000808000000D
:1024700000808000001F202020103F2080808000EE
:102480000080808000010E300806010080800080FE
:10249000008080800F300C030C300F000080800023
:1024A000808080000020312E0E312000808080004E
:1024B0000080808080818E701806010000808080FE
:1024C000808080000021302C22213000000000009C
:1024D000807C020200000000003F4040000000003D
:1024E000FF00000000000000FF0000000002027C6E
:1024F000800000000040403F000000000006010195
:102500000202040400000000000000002C25000866
:102510000000002044000000D41A000870250008C4
:10252000440000209C040000E41A000800000000A1
:10253000000000000000000000000000000000009B
:102540000100000010000000000000000024F40062
:1025500000000000AE001040B081FFA1A6A83FC857
:10256000D300D580D805D9F1DA12D8308D14AF0058
:04000005080000ED02
:00000001FF
